:100000000C9434000C9449000C9449000C94490061
:100010000C9449000C9449000C9449000C9449003C
:100020000C9449000C9449000C9449000C9449002C
:100030000C9449000C9449000C9449000C9449001C
:100040000C9449000C9449000C9449000C9449000C
:100050000C9449000C9449000C9449000C944900FC
:100060000C9449000C94490011241FBECFEFD8E036
:10007000DEBFCDBF11E0A0E0B1E0E2ECF0E002C0F5
:1000800005900D92A830B107D9F70E944B000C944F
:100090005F000C9400008FE084B980E0E82FF0E06E
:1000A000E050FF4F908195B98F5F883009F480E070
:1000B000EFE4F6E43197F1F700C00000EFCFF894D9
:0200C000FFCF70
:0800C200080C04060203010909
:00000001FF
