:100000000C9434000C9449000C9449000C94490061
:100010000C9449000C9449000C9449000C9449003C
:100020000C9449000C9449000C9449000C9449002C
:100030000C9449000C9449000C9449000C9449001C
:100040000C9449000C9449000C9449000C9449000C
:100050000C9449000C9449000C9449000C944900FC
:100060000C9449000C94490011241FBECFEFD8E036
:10007000DEBFCDBF11E0A0E0B1E0ECECF0E002C0EB
:1000800005900D92A430B107D9F70E944B000C9453
:1000900064000C9400008FE084B980E033B1932FAA
:1000A000907436FF09C0211106C08F5F843009F4B7
:1000B00080E091E001C0922FE82FF0E0E050FF4F88
:0C00C000208125B9292FEACFF894FFCF4A
:0400CC000102040821
:00000001FF
