:100000000C9434000C943E000C943E000C943E0082
:100010000C943E000C943E000C943E000C943E0068
:100020000C943E000C943E000C943E000C943E0058
:100030000C943E000C943E000C943E000C943E0048
:100040000C943E000C943E000C943E000C943E0038
:100050000C943E000C943E000C943E000C943E0028
:100060000C943E000C943E0011241FBECFEFD8E04C
:10007000DEBFCDBF0E945D000C9475000C940000A3
:100080001092C5008CE08093C40088E18093C10089
:1000900082E28093C00086E08093C2000895809140
:1000A000C00087FFFCCF8091C60008959091C000EA
:1000B00095FFFCCF8093C600089584E09DE00E94E8
:1000C0004000579A8BB180588BB988E70E94560040
:1000D0008CE60E9456002FEF89E698E1215080407F
:0E00E0009040E1F700C00000EDCFF894FFCF94
:00000001FF
