:100000000C9434000C9449000C9449000C94490061
:100010000C9449000C9449000C9449000C9449003C
:100020000C9449000C9449000C9449000C9449002C
:100030000C9449000C9449000C9449000C9449001C
:100040000C9449000C9449000C9449000C9449000C
:100050000C9449000C9449000C9449000C944900FC
:100060000C9449000C94490011241FBECFEFD8E036
:10007000DEBFCDBF11E0A0E0B1E0E8ECF0E002C0EF
:1000800005900D92A430B107D9F70E944B000C9453
:1000900062000C9400008FE084B980E0E82FF0E06B
:1000A000E050FF4F908195B98F5F843009F480E074
:1000B0002FEF34E39CE0215030409040E1F700C046
:0800C0000000ECCFF894FFCF23
:0400C8000102040825
:00000001FF
